:020000040800F2
:10000000701E00209901000867200008331F0008B7
:10001000652000084D090008912300080000000039
:1000200000000000000000000000000001010008C6
:100030008709000800000000450100086D21000844
:10004000B3010008B3010008B3010008B3010008C0
:10005000B3010008B3010008B3010008B3010008B0
:10006000B3010008B3010008B301000851090008FA
:10007000B3010008B3010008B3010008B301000890
:10008000B3010008B301000811080008B30100081B
:10009000B3010008B3010008B3010008B301000870
:1000A000B3010008B3010008B3010008B301000860
:1000B000B3010008B3010008FD210008B3010008E6
:1000C000B3010008B3010008B3010008B301000840
:1000D000B3010008B3010008B3010008B301000830
:1000E000B3010008B3010008B3010008DFF80CD029
:1000F00000F05AFB00480047C12C0008701E002089
:10010000224B19680868B0E8F00F80F30988BFF344
:100110006F8F4FF0000080F311884EF00D0E704786
:100120000000000006480068006880F3088862B696
:1001300061B6BFF34F8FBFF36F8F00DF00BF00BF0B
:1001400008ED00E0EFF30980BFF36F8F0F4B1A68E3
:1001500020E9F00F106008B54FF0500080F31188CF
:10016000BFF34F8FBFF36F8F03F0F4FC4FF000002D
:1001700080F31188BDE8084019680868B0E8F00FFE
:1001800080F30988BFF36F8F704700BF2400002001
:10019000EFF3058070470000064880470648004797
:1001A000FEE7FEE7FEE7FEE7FEE7FEE7FEE7FEE727
:1001B000FEE7FEE7F9210008ED000008202A04DB35
:1001C000203A21FA02F00021704721FA02F3D040D0
:1001D000C2F12002914008431946704740EA0103EA
:1001E0009B0703D009E008C9121F08C0042AFAD2ED
:1001F00003E011F8013B00F8013B521EF9D27047B1
:10020000D2B201E000F8012B491EFBD27047002258
:10021000F6E710B513460A4604461946FFF7F0FF05
:10022000204610BD2DE9FE4F81EA030404F000448E
:1002300021F0004100944FF0000B23F0004350EAFE
:1002400001045ED052EA03045BD0C3F30A54C1F345
:100250000A552C44A4F2F3340194A0FB0254C1F3D8
:10026000130141F48011C3F3130343F4801301FB22
:10027000024400FB034E840A970A44EA815447EA89
:100280008357A4FB076802958D0A05FB07854FEA93
:10029000932C04FB0C542705029D4FEA065847EAAD
:1002A0001637B5EB08056EEB070C870E920E47EA82
:1002B000811742EA8312A7FB0201B6EB0B0164EB44
:1002C00000042B0D43EA0C335E1844EB1C50DA4655
:1002D0005146E7FB0201C5F313044FEA0B3343EA2F
:1002E00014534FEA0432019C43EA0603A4F10C04C0
:1002F0000294009CCDE900B400F0C2F803B0BDE860
:10030000F08F00200146F9E770B521F00043034368
:100310000CD0C1F30A550024D5EB040564EB0403AB
:10032000D617AD1AB34102DB0020014670BD20187C
:1003300041EB025170BD96230022114600F063B8D4
:1003400000F0004230F000400AD0C10D01F56071AC
:10035000C0F3160042EA0151C2084007114370473A
:1003600000200146704730B50B4601460020202290
:10037000012409E021FA02F59D4205D303FA02F5B2
:10038000491B04FA02F52844151EA2F10102F1DC12
:1003900030BD2DE9F05F0546002092469B46884619
:1003A0000646814640241BE02846414647462246F1
:1003B000FFF704FF53465A46C01A914110D3114625
:1003C0001846224600F002FA2D1A67EB01084F4644
:1003D00022460120002100F0F9F917EB00094E41F7
:1003E000201EA4F10104DFDC484631462A4643467C
:1003F000BDE8F09F0029A8BF7047401C490008BF16
:1004000020F00100704710B4B0FA80FC00FA0CF044
:1004100050EA010404BF10BC704749B1CCF120047C
:1004200021FA04F411FA0CF118BF01212143084309
:10043000A3EB0C01CB1D4FEA00614FEA102042BF35
:10044000002010BC704700EBC35010440029A4BF2B
:1004500010BC7047401C490008BF20F0010010BCD0
:10046000704710B5141E73F1000408DA401C41F106
:10047000000192185B411A4301D120F0010010BD28
:100480002DE9F04D92469B4611B1B1FA81F202E09E
:10049000B0FA80F22032904600F098F904460F46F8
:1004A00040EA0A0041EA0B0153465A46084313D07A
:1004B000114653EA010019D0C8F140025046FFF737
:1004C0007DFE05460E4650465946424600F07EF9EE
:1004D000084305D0012004E020463946BDE8F08DF0
:1004E0000020054346EAE0762C4337430A9863052B
:1004F000E40AA0EB08000022FD0A44EA47540A304F
:1005000002D500200146E9E7010510196941DDE93E
:10051000084500196941BDE8F04DA2E72DE9FE4FFD
:10052000804681EA0300C00F0C46009021F0004194
:1005300023F00045B8EB0200A94105D24046214610
:1005400090461C460B46024623F00040104347D01D
:10055000270DC7F30A00C3F30A510290401A019015
:1005600040286BDAC3F3130040F4801B00989246D6
:1005700020B10023D2EB030A63EB0B0B0198594621
:10058000C0F14002504600F021F906460D465046A3
:100590005946019A00F029F910EB08006141002446
:1005A00087EA115284EAE7731A4340D0009A62B393
:1005B000019A012A4FEA075215DC001B61EB020188
:1005C0004FF0004202EA0752CDE90042001C41F51B
:1005D000801132462B46FFF753FF03B0BDE8F08F82
:1005E00040462146F9E7001B61EB0201001C41F582
:1005F000801300185B412018A2F5001747EB030198
:1006000040EAD570B6196D4111E06D084FEA360623
:1006100045EAC0754FEA0752001B61EB0201001C5E
:1006200041F5801149084FEA300000195141324626
:100630002B4603B0BDE8F04FFFF713BF009801222F
:1006400040000023D0EB020263EBE07300982146E8
:100650004FEAE074B8EB000061EB0401E9E783F0D6
:1006600000435BE781F0004158E72DE9F04D81EA56
:10067000030404F0004B21F0004514464FF0000A3B
:1006800023F0004150EA050220D054EA01021DD0B7
:10069000C5F30A570246C5F31303C1F31300C1F3B0
:1006A0000A5640F4801543F48013A7EB0608101B8C
:1006B000D64608F2FD3873EB050002D308F10108B5
:1006C00001E092185B41B8F1000F03DA0020014607
:1006D000BDE8F08D00204FF48011064684460EE000
:1006E000171B73EB050705D3121B63EB05030643CA
:1006F0004CEA010C49084FEA300092185B4150EA7D
:100700000107EDD152EA030012D082EA040083EA25
:100710000501084305D0101BAB4106D2012200237E
:1007200006E000224FF0004302E06FF00102531098
:100730001AEB06004CEB085110EB0A0041EB0B01E1
:10074000BDE8F04DFFF78DBEC1F30A52C1F31301AE
:1007500040F2FF3341F480119A4202DA0020014650
:10076000704740F233439A42A2F2334202DC5242D3
:10077000FFF724BD00F02AB830B5041E71F1000463
:1007800004DB4FF00044404264EB0101141E73F19E
:10079000000405DB1C464FF00043524263EB0403A8
:1007A000994208BF904230BD064C074D06E0E06814
:1007B00040F0010394E8070098471034AC42F6D3A8
:1007C000FFF798FC7846000898460008202A04DBCA
:1007D000203A00FA02F1002070479140C2F1200354
:1007E00020FA03F3194390407047202A06DBCB1709
:1007F000203A41FA02F043EAE07306E041FA02F3DC
:10080000D040C2F1200291400843194670470000D1
:10081000014800F0A2B90000A000002070B5044615
:1008200000688168C943C9071CD1816821F00101B2
:10083000816000F071FD05460FE000BF00F06CFD27
:10084000401B022809D9A06A40F01000A062E06AAB
:1008500040F00100E062012070BD20688068C04364
:10086000C007EBD0002070BD10B50146406A826A17
:1008700012F0500F05D0006A026BBDE81040084628
:100880001047816A41F40071816201688968C1F38F
:10089000424107290CD1017B51B9816A21F4807151
:1008A0008162816AC90403D4816A41F001018162D5
:1008B00000F050F910BD10B5406A816A41F0400166
:1008C0008162C16A41F00401C16200F045F910BDC6
:1008D00010B5406A00F03FF910BD0000F8B50026E1
:1008E0000446009600688168C943C90728D081681A
:1008F00041F001018160134813490068B0FBF1F039
:1009000000E0401E00900028FBD100F005FD0546E8
:1009100011E000BF00F000FD401B02280BD9A06AC7
:1009200040F01000A062E06A40F00100E06284F84C
:1009300024600120F8BD20688068C043C007E9D169
:100940000020F8BD2000002040420F00FEE700001C
:10095000014800F0DBBA00001001002030B590F82B
:1009600040500124AC40C56B6C6004686360436810
:10097000102B036803D099600068C26030BD9A6094
:100980000068C16030BD704770470000F8B50025B1
:100990000446009590F82400012808D0012084F82E
:1009A00024002046FFF73AFF060002D04BE0022069
:1009B000F8BDA06A20F4885040F00200A062022036
:1009C00000F062FD22490968B1FBF0F0400000E050
:1009D000401E00900028FBD12046FFF77FFF2068D3
:1009E000816841F00801816000F096FC074604E050
:1009F00000F092FCC01B0A2811D82068806800070C
:100A0000F6D42068816841F00401816000F084FC24
:100A100007460EE000F080FCC01B0A2809D9A06A36
:100A200020F0020040F01000A06284F82450012061
:100A3000F8BD206880684007ECD4A06A20F002006E
:100A400040F00100A06284F824503046F8BD000058
:100A50002000002070470000F8B50024009490F8B2
:100A600024202546012A12D0012280F824204A6839
:100A70001F23072A0DD20668776B521E02EB8202F3
:100A800093409F430B6893401F43776319E0022014
:100A9000F8BD06680D2A0AD2376BD21F02EB82021C
:100AA00093409F430B6893401F43376309E0F76A05
:100AB0000D3A02EB820293409F430B6893401F4321
:100AC000F7620A68072306680A2A0AD3F7680A3A0F
:100AD00002EB420293409F438B6893401F43F760B1
:100AE00008E0376902EB420293409F438B689340D2
:100AF0001F4337610A68102A01D0112A20D1124BF6
:100B000002689A4217D193681B0219D4936843F480
:100B1000000393600968102912D10C490C4A096836
:100B2000B1FBF2F101EB8101490000E0491E0091A7
:100B30000029FBD104E0816A41F020018162012497
:100B400080F824502046F8BD0024014020000020F9
:100B500040420F0070477047704710B50446006868
:100B60004168890626D50168890723D5A16AC90687
:100B700003D4A16A41F40071A1628168C1F34241CA
:100B8000072910D1217B71B9416821F02001416012
:100B9000A06A20F48070A062A06AC00403D4A06A96
:100BA00040F00100A0622046FFF7D4FF21686FF0FB
:100BB000120008602068416809062ED501684907BF
:100BC0002BD5A16AC90603D4A16A41F40051A162E0
:100BD0008168C1F30231072909D04168490515D45C
:100BE0008168C1F34241072910D1217B71B9416865
:100BF00021F080014160A06A20F48050A062A06AC8
:100C0000C00503D4A06A40F00100A0622046FFF7AF
:100C100021FF21686FF00C000860206841684906D8
:100C20000DD50068C0070AD0A06A40F48030A062E9
:100C3000204600F093F821686FF00100086010BDB5
:100C40002DE9F0414FF0000704003D467ED0A06A38
:100C5000002628B9E66284F82460204600F080F877
:100C60002046FFF7DBFDA16AC90600D420B1A06AC7
:100C700040F01000A06269E0A16A21F4885141F0BF
:100C80000201A1626268E169237B0A4347EA4301EA
:100C90000A43A1684FF48077B94209D0012907D0EF
:100CA0005FF0000194F814C0BCF1010F02D00AE01B
:100CB0003946F7E7F3B1A36A43F02003A362E36A7E
:100CC00043F00103E3622368D3F804C02CF4694CB9
:100CD0004CEA010CC3F804C021688B68DFF870C0CF
:100CE00003EA0C0313438B60A168B9420BD00129BE
:100CF00009D00CE0DFF85CC0A3690CEB43330B4375
:100D000043F40061DFE7218A0D05A5F58015216810
:100D1000CB6A23F470032B43CB62216889680E4BA6
:100D20001940914208D1E662A16A21F0020141F026
:100D30000101A162BDE8F081A06A20F0020040F04C
:100D40001000A062E06A40F00100E0620120F1E7DB
:100D5000FDF7E1FF00E0FFFFFE0E1FFF7047000000
:100D600070B586B00025064600950195029503955D
:100D700000681E49884236D11D49886940F40070D8
:100D80008861886900F400700490886940F004006C
:100D900088618869694600F004000490062000908C
:100DA00003200190134800F0C1F9144C1248C4E923
:100DB00000058020C4E9025080002061800060614D
:100DC0002020C4E90605204600F04AF908B1FFF7E3
:100DD000DBFD3462002211461220666200F022FB25
:100DE000122000F011FB06B070BD0000002401408D
:100DF00000100240000801400800024010010020DD
:100E00002DE9F047894604463B4900683B4F0E1DDB
:100E10009046884201D0B84207D1306810F4702F54
:100E200003D001252846BDE8F08794F82400012866
:100E30000CD0012084F824002046FFF74FFD050068
:100E40004FF0000004D084F82400EBE70220EAE72A
:100E5000A16A40F60162914341F48071A162216868
:100E6000B94218D1326812F4702F14D0A16A41F43B
:100E70008011A1623168490505D5A16A21F40051AC
:100E800041F48051A162A16AC9040AD5E16A21F046
:100E90000601E16206E0A26A22F48012A2624968B9
:100EA000E9E7E06284F82400216A15488862216A33
:100EB0001448C862216A1448086321686FF0020070
:100EC00008602068816841F4807181602168434630
:100ED0004A464C31206A00F0F1F820688168C1F37D
:100EE00042410729816803D041F48011816099E76C
:100EF00041F4A001FAE7000000240140002801406D
:100F000069080008D1080008B70800082DE9F05F5B
:100F1000C16B0C6801680B68D0F840C0042202FA6B
:100F20000CF2494DDFF824A1494E4A4FDFF828B1B1
:100F3000DFF828E122422CD05A072AD50A68920607
:100F400003D40A6822F004020A600168A94201D1B0
:100F5000042219E0514501D1402215E0B14202D1ED
:100F60004FF4806210E0B94202D14FF480420BE0AE
:100F7000594502D14FF4802206E0714502D14FF469
:100F8000800201E04FF080622F4908394A60C16A4F
:100F90003BE04FF0020808FA0CF818EA040F4FF093
:100FA00000094FF0010235D05FEA837832D50B6833
:100FB0009B0605D40B6823F00A030B6080F8212000
:100FC0000168A94201D1022219E0514501D1202234
:100FD00015E0B14202D14FF4007210E0B94202D1E3
:100FE0004FF400520BE0594502D14FF4003206E0B5
:100FF000714502D14FF4001201E04FF00072124926
:1010000008394A6080F82090816A00291AD0BDE82A
:10101000F05F0847082505FA0CF5254212D01B079A
:1010200010D50B6823F00E030B6090F84010C36BD3
:1010300002FA01F15960826380F8212080F8209043
:10104000016BE2E7BDE8F09F080002401C0002408F
:101050003000024044000240580002406C00024050
:1010600030B528B308C8134914221944B1FBF2F172
:101070008900C16310498163022141771A6843F6F0
:10108000F0718A43D0E900142143D0E902452C4392
:101090002143046921434469214384692143114365
:1010A000196000214163012242770177084630BD73
:1010B000012030BDF8FFFDBF0000024070B50446BE
:1010C00090F82000002501280CD0012084F8200091
:1010D00094F821600020012E06D084F8200002251B
:1010E000284670BD022070BD022684F82160A063EE
:1010F0002068066826F0010606602046FFF72EFCF1
:10110000E06A00282068016802D041F00E0106E084
:1011100021F0040101602068016841F00A010160CA
:101120002068016841F001010160D9E72DE9F84F1D
:10113000DFF8B891002409F1040A0AF1040B2346F0
:101140000F270BF1040EC9E00125A5402A40AA4251
:101150007DD1674ED1F804C0ACEB0608B44532D05F
:1011600014DCBCF1030F3AD009DCBCF1000F2AD02B
:10117000BCF1010F1CD0BCF1020F31D11DE0BCF15C
:10118000110F17D0BCF1120F2AD119E0B8F5881F42
:1011900019D006DCB8F5803F15D0B8F5801F1FD1F7
:1011A00011E0B8F5001F0ED0B8F5041F18D10AE001
:1011B000CB6815E0CB681B1D12E0CB6808330FE04D
:1011C000CB680C330CE08B682BB1012B4FF008037C
:1011D00003D0456104E0042302E0056100E0002340
:1011E000FF2A01D8064601E000F104064FEA840513
:1011F00001D9A5F12005D6F8008007FA05FC28EAF8
:101200000C0803FA05F548EA0508C6F800804D68A1
:10121000ED0062D5374DAE6946F00106AE61AD69AD
:1012200024F0030605F001050095334D06EB050C8F
:10123000DCF80850A607360F07FA06F825EA080575
:10124000DFF8B880404503D14FF0000817E044E0D4
:10125000DFF8AC80404502D14FF001080FE0DFF825
:10126000A480404502D14FF0020808E0DFF89880E2
:10127000404502D14FF0030801E04FF0040808FA9E
:1012800006F848EA0508CCF808804D68D9F80060EF
:10129000ED034D4601D5164300E096432E604D68A0
:1012A000DAF80060AD03554601D5164300E09643D9
:1012B0002E604D68DBF80060ED025D4601D51643F7
:1012C00000E096432E604D68DEF80060AD02754682
:1012D00001D5164300E096432E60641C0D682A4633
:1012E000E5407FF431AFBDE8F88F00000004014015
:1012F00000001110001002400000014000080140F1
:10130000000C014000100140001401400AB10161CD
:1013100070470904FBE7000001488068704700003F
:1013200014000020024881680278114481607047EF
:1013300014000020074810B5016841F01001016059
:10134000032000F08FF8002000F006F800F03EF8CF
:10135000002010BD0020024000B5014687B00022E9
:101360001E2000F05FF81E2000F04EF81348C169FF
:1013700041F00401C161C06905A900F004000690B4
:10138000684600F0F1F900F00FFA0D494000B0FB9B
:10139000F1F10D480B4A491E0260416040F2E7320C
:1013A0000021C0E90321816000F0E6FB10B10120BB
:1013B00007B000BD044800F00DFCF9E70010024042
:1013C00040420F0000080040540100200C4808B5BE
:1013D000816941F001018161816901F001010091A0
:1013E000C16941F08051C161C06900F08050009036
:1013F0000448416821F0E06141F00071416008BD9E
:101400000010024000000140002809DB00F01F022C
:10141000012191404009800000F1E020C0F8001156
:1014200070470000F0B40E4B1B680C46C3F3022358
:10143000C3F10705042D00D90425191D072901D280
:10144000002300E0DB1E012606FA05F1491E2140BB
:1014500099409E40761E16403143F0BC00F0AABF72
:101460000CED00E0064900F0070208684FF6FF03A4
:10147000184040EA0220034A104308607047000009
:101480000CED00E00000FA0510B529A401461DCCC2
:1014900086B08DE81D002AA02A4C00680490002028
:1014A000012923D002293AD010291DD16168226870
:1014B000D20119D5C1F38342C9031DF8020009D531
:1014C000616804AAC1F34041515C1F4AB2FBF1F1CB
:1014D000484301E01D4948436168490204D4400083
:1014E0005FF00301B0FBF1F006B010BD226AC2F359
:1014F0000121012903D1920701D5C803F4E702298C
:1015000005D1626A920702D549F64040ECE703290B
:10151000EAD121688903E7D54FF22440E4E700F0DF
:1015200053F96168C1F38131491C4900DAE70000D1
:1015300002030405060708090A0B0C0D0E0F101014
:10154000010200000010024000127A0000093D0074
:101550002DE9F84305460078354CC00754D0E069C2
:101560000026C00008D4E06940F08050E061E069E6
:10157000012600F0805000902E480168C90512D461
:101580000168804641F480710160FFF7C5FE07469F
:1015900005E000BFFFF7C0FEC01B642823D8D8F8C1
:1015A0000000C005F6D5206A10F4407021D0A9884B
:1015B00001F4407181421CD0206A1F49012220F4AD
:1015C00040700A6000220A602062C00711D0FFF755
:1015D000A3FE074641F2883808E000BFFFF79CFEF3
:1015E000C11B414502D90320BDE8F883206A80076A
:1015F000F4D5206A696820F44070084320621EB167
:10160000E06920F08050E0612878800705D56068A7
:10161000A96820F44040084360602878C00605D5DA
:101620006068E96820F48000084360600020DBE720
:101630000010024000700040400442422DE9F04793
:101640000F46050061D0434E306800F00700B842F5
:1016500009D2306820F0070038433060306800F06D
:101660000700B84251D128683B4C810712D540078A
:1016700003D5606840F4E06060602878000703D517
:10168000606840F4605060606068A96820F0F00015
:10169000084360602878C00728D06868012810D007
:1016A0002168022810D0890700292EDA616821F00C
:1016B000030101436160FFF72FFE804641F2883944
:1016C0000DE021688903EFE78901EDE7FFF724FECC
:1016D000A0EB0801494502D90320BDE8F087606806
:1016E000696800F00C00B0EB810FEFD1306800F0BA
:1016F0000700B8420BD9306820F00700384330604B
:10170000306800F00700B84201D00120E5E72878F2
:10171000400705D56068E96820F4E0600843606030
:101720002878000706D56068296920F4605040EAEF
:10173000C100606000F058F86168084AC1F3031105
:10174000515CC8400649086006480068FFF704FE7F
:101750000020C2E70020024000100240244600089A
:1017600020000020180000200F2202600C4A53685D
:1017700003F003034360536803F0F003836053688E
:1017800003F4E063C36052684FF4E06303EAD202FB
:1017900002610448006800F007000860704700001C
:1017A00000100240002002400448054900684968D2
:1017B000044AC1F30221515CC84070472000002058
:1017C0000010024034460008044805490068496892
:1017D000044AC1F3C221515CC84070472000002078
:1017E000001002403446000812A185B00FC98DE8F0
:1017F0000F0014A0144A006804905168134801F0C7
:101800000C03042B10D0082B0ED1C1F38343C90362
:101810001DF803000AD5516804AAC1F34041515C88
:101820000A4A5043B0FBF1F005B0704708494843FD
:10183000FAE7000002030405060708090A0B0C0D6D
:101840000E0F1010010200000010024000127A007A
:1018500000093D002DE9F84F040070D02078C04DFC
:10186000C00749D06868C0F38100012807D06868C4
:10187000C0F38100022809D16868C00306D5286832
:10188000800339D560680028E7D035E06068B0F59E
:10189000803F0BD010B1B0F5A02F11D0286820F4F4
:1018A00080302860286820F4802002E0286840F416
:1018B00080302860606890B1FFF72EFD06460AE090
:1018C000286840F480202860F0E700BFFFF724FD7F
:1018D000801B642873D828688003F7D50CE0FFF7D5
:1018E0001BFD064605E000BFFFF716FD801B6428C0
:1018F000F0D828688003F7D420789A4E80074FF0FC
:1019000001094FF0000839D5686810F00C0F07D0B6
:101910006868C0F38100022809D16868C00306D452
:101920002868800714D52069012808D110E02069B3
:10193000B0B1C6F80090FFF7EFFC074605E00AE1FA
:10194000FFF7EAFCC01B0228C4D828688007F7D537
:101950002868616920F0F80040EAC10028600DE0C5
:10196000C6F80080FFF7D8FC074604E0FFF7D4FC78
:10197000C01B022823D828688007F7D420780007E6
:101980002CD57948A169D9B1C0F80090FFF7C4FC03
:10199000074604E0FFF7C0FCC01B02280FD8686AA6
:1019A0008007F7D571484FF4FA510068B0FBF1F0A9
:1019B000009000BF0098411E0091FAD20EE080E036
:1019C000C0F80080FFF7A8FC074604E0FFF7A4FC7E
:1019D000C01B022875D8686A8007F7D420784007B2
:1019E00060D5E8690027C00008D4E86940F080505D
:1019F000E861E869012700F0805000905C480168C8
:101A0000C90513D40168834641F480710160FFF772
:101A100083FC824606E000BFFFF77EFCA0EB0A00D5
:101A200064284ED8DBF80000C005F5D5E068012831
:101A30000AD008B1052813D0286A20F001002862D6
:101A4000286A20F0040002E0286A40F001002862C1
:101A5000E06841F2883B98B1FFF75EFC82460BE0FC
:101A6000286A40F004002862EEE700BFFFF754FC4C
:101A7000A0EB0A0159455AD8286A8007F6D50CE030
:101A8000FFF74AFC824605E0FFF746FCA0EB0A019F
:101A900059454CD8286A8007F6D41FB1E86920F070
:101AA0008050E861E06988B36968C1F38101022967
:101AB00044D00228C6F8608004D0FFF72DFC04460D
:101AC00038E034E0FFF728FC074604E0FFF724FC89
:101AD000C01B02282BD828688001F7D4206AB0F5F3
:101AE000803F05D16868A16820F400300843686031
:101AF000D4E908010843696821F474110843686057
:101B0000C6F86090FFF708FC044606E025E000BF39
:101B1000FFF702FC001B022809D828688001F7D5CE
:101B20001BE000BFFFF7F8FB001B022802D90320CF
:101B3000BDE8F88F28688001F4D40EE00128F7D0C2
:101B40006868226A00F48031914204D1616A00F42D
:101B50007010884201D00120EAE70020E8E7000089
:101B60000010024000004242800442422000002057
:101B7000007000407047704710B5040003D094F81F
:101B80003D0010B107E0012010BD002084F83C00AA
:101B9000204600F01EF8022084F83D00211D206838
:101BA00000F032FB012084F8460084F83E0084F8FF
:101BB0003F0084F8400084F8410084F8420084F833
:101BC000430084F8440084F8450084F83D00002078
:101BD00010BD704790F83D10012901D001207047D9
:101BE000022180F83D100168CA6842F00102CA6013
:101BF00000680B49884208D0B0F1804F05D00949F0
:101C0000884202D00849884204D1816801F0070166
:101C1000062903D0016841F00101016000207047EE
:101C2000002C01400004004000080040704770B5DF
:101C30000446006801694FF00005C943890715D4BF
:101C4000C168C943890711D4E91E016101202077C9
:101C5000206880698007204602D0FFF7E7FF04E094
:101C600000F098F8204600F096F825772068016982
:101C7000C943490717D4C168C943490713D46FF052
:101C800004010161022020772068806910F4407F00
:101C9000204602D0FFF7CAFF04E000F07BF82046A0
:101CA00000F079F8257720680169C943090716D43F
:101CB000C168C943090712D46FF00801016104200B
:101CC00020772068C0698007204602D0FFF7AEFF6A
:101CD00004E000F05FF8204600F05DF8257720680A
:101CE0000169C943C90617D4C168C943C90613D4D9
:101CF0006FF010010161082020772068C06910F49E
:101D0000407F204602D0FFF791FF04E000F042F848
:101D1000204600F040F8257720680169C943C907CB
:101D200008D1C168C943C90704D1891E0161204691
:101D300000F032F820680169C943090609D4C16876
:101D4000C943090605D46FF0800101612046FFF701
:101D500011FF20680169C943490609D4C168C94314
:101D6000490605D46FF040010161204600F01EF8DD
:101D700020680169C94389060BD4C168C943890633
:101D800007D46FF0200101612046BDE87040FFF7E5
:101D9000F2BE70BD7047704700680349884201D1A8
:101DA000FFF7C0BA7047000000080040704770B5E8
:101DB000040004D094F83900002510B106E0012099
:101DC00070BD84F83850204600F022F8242084F8B2
:101DD00039002068C16821F40051C160204600F03C
:101DE00049FA2068016921F4904101612068416944
:101DF00021F02A0141612068C16841F40051C160AD
:101E0000E563202084F8390084F83A00002070BD92
:101E100030B585B0002400940194029403940068C6
:101E20001449884224D11448C16941F48021C16118
:101E3000C16901F480210491816941F00801816147
:101E400080690E4D00F0080004904FF4806000900F
:101E5000022001900320039069462846FFF766F9A7
:101E6000E814CDE90004694628460294FFF75EF9BC
:101E700005B030BD0048004000100240000C014099
:101E80002DE9F843044690F839001F4616460D46E2
:101E900020284CD1C5B1BEB194F83800012846D0F5
:101EA000012084F838004FF00008C4F83C8021205D
:101EB00084F83900FFF730FAA6848146E684A068EA
:101EC000B0F5805F03D004E00120BDE8F88320690D
:101ED00028B12E465FF0000584F838800EE0002619
:101EE000FAE78021204600F021FAA0B9AEB116F839
:101EF000010B21684860E08C401EE084E08C4B467A
:101F00004FF0000200970028EBD14FF0400120462F
:101F100000F00CFA30B10320D7E735F8020BC0F31C
:101F20000800E6E7202084F839000020CDE70220F1
:101F3000CBE7FEE73EB500211148009101910F4A21
:101F400002910260921582600124047301750225DA
:101F50004FF460220561C2614160FEF771FE052009
:101F60000095CDE9014069460548FEF775FD6946D3
:101F70000348CDE90045FEF76FFD3EBD002401405A
:101F8000A00000202DE9F04786B0002631480096D9
:101F9000019602960396816941F010018161816981
:101FA00001F010010491816941F020018161816992
:101FB00001F020010491816941F00401816181698E
:101FC00001F004010491816941F008018161806997
:101FD000DFF8849000F00800049001222021484698
:101FE000FFF794F9DFF874A047F2FF370022394673
:101FF0005046FFF78BF94FF4004801224146504606
:10200000FFF784F90320009015480124CDE901046D
:1020100069464846FFF78AF82020CDE900040225EA
:1020200069464846CDE90245FFF780F800970395D9
:10203000CDE9014669465046FFF778F8CDE90084BE
:1020400069465046CDE90245FFF770F806B0BDE895
:10205000F08700000010024000100140000C014019
:1020600000002110FEE77047012000F08DFEFBE725
:102070001CB51D48FEF78AFC1C4D4FF066346FF00E
:102080000B064FF4FA78022269461748FEF7B8FEAD
:102090000098FEF750F907460198FEF74CF9FEF755
:1020A0004FF922462B46FEF7BDF83246FEF72CF9D3
:1020B00002460B460EA000F06DF93846FEF740F9D7
:1020C00022462B46FEF7AEF83246FEF71DF90246D1
:1020D0000B460CA000F05EF90FA000F05BF9404643
:1020E00000F052FECFE70000A000002066660A4024
:1020F000504131B5E7D1B9CEAA20252E3266560D12
:102100000A000000504132B5E7D1B9CEAA20252EF1
:102110003266560D0A0000000D0A00004FF47A7472
:1021200003A000F037F9204600F02EFEF8E700008B
:102130005461736B332069732072756E696E672109
:102140000A0000004FF47A7403A000F023F920463F
:1021500000F01AFEF8E700005461736B34206973D5
:102160002072756E696E67210A00000010B550205C
:1021700080F31188BFF34F8FBFF36F8F02F05CF8CD
:1021800018B104494FF080500860002080F3118896
:1021900010BD000004ED00E030B593B02821684682
:1021A000FEF735F814210AA8FEF731F800240120C3
:1021B0000F9410941194010412948DE8130004906C
:1021C0004FF4E010CDE90810022507956846FFF7A7
:1021D00041FB0F20CDE90A056802CDE90C40022140
:1021E0000AA80E94FFF72AFAA80311900F950FA8DA
:1021F000FFF7AEF913B030BD704700000148FFF79C
:1022000016BD000054010020F0B50268164B174CB3
:10221000174D4FF08047984205D0B84203D0A042F6
:1022200001D0A84203D122F070064A683243984296
:1022300005D0B84203D0A04201D0A84203D122F475
:102240004074CA6822434C6922F080022243026033
:102250008A68C2620A688262984201D10969016390
:1022600001214161F0BD0000002C0140000400404C
:102270000008004070B5044600680169E26821F476
:102280004051114301612169A06808436169084315
:102290002168CA6841F20C639A430243CA6020680D
:1022A0004169A26921F44071114341611E492068CE
:1022B000884202D1FFF788FA01E0FFF775FA00EBD8
:1022C000C00101EB0012606864218000B2FBF0F3F2
:1022D000B3FBF1F36FF018067343B2FBF0F5B2FBFA
:1022E000F0F605EB8305322303EB0515B5FBF1F59D
:1022F000B6FBF1F605F0F00505EB0615B2FBF0F6BE
:10230000B2FBF0F0B0FBF1F06FF01802504306EBB7
:10231000800003EB0010B0FBF1F0216800F00F002B
:102320002844886070BD0000003801402DE9F0416C
:10233000984617460E460446069D1DE0681C1BD0B5
:102340002DB1FEF7E9FFA0EB0800A84214D92068E0
:10235000C16821F4D071C1602068416921F0010198
:102360004161202084F8390084F83A00002084F884
:1023700038000320BDE8F0812068006836EA0000DC
:1023800004D00020B842D9D00020F3E70120F9E7BB
:10239000FEE700000FB4054B10B503A9044A0298EC
:1023A00000F0EAF810BC5DF814FB0000A92C00084E
:1023B0009C0000200907090E002804DB00F1E02042
:1023C00080F80014704700F00F0000F1E02080F862
:1023D000141D704702E008C8121F08C1002AFAD174
:1023E00070477047002001E001C1121F002AFBD195
:1023F000704700002DE9FF5F82B00021DDE9043065
:10240000020DDDF840B0034318D044F61050A2F29C
:10241000FF3242431514119801281FD0A5EB0B0081
:10242000401C5FEA000A4FF000064E4FDFF838917B
:10243000B046504615D5CAF1000413E011980124A6
:102440004AA3012801D16FEA0B010298119AC0E951
:102450000031C0E9024206B0BDE8F09FCBF10000B8
:10246000DFE704460021404A491842EB0450CDE919
:10247000001012E0E00707D032463B46404649468E
:10248000FDF7D0FE8046894632463B461046194647
:10249000FDF7C8FE06460F466410002CEAD1DDE9C0
:1024A0000401DDE90023BAF1000F06DAFDF7BAFEF8
:1024B00042464B46FDF7B6FE05E0FEF7D6F842462B
:1024C0004B46FEF7D2F804460E460022284BFEF794
:1024D00053F903D84FF0FF30014607E00022254BA7
:1024E00020463146FEF71AF8FEF72EF9102409E0CF
:1024F000002C0ADB0A220023FDF74BFF039B30323E
:102500001A55641E50EA0102F2D1641C039AC4F108
:1025100011031444119A012A03D0012208430DD15A
:102520000AE0084304D000204FF0110B119072E72D
:10253000A3EB0B056D1E0DE05B4504DD4FF00002C3
:1025400005F1010504E003DA4FF00002A5F10105F1
:10255000002AECD002981199C0E90231C0E9004587
:1025600079E70000000014400000F03F3000000058
:102570000000F0430000E03F2DE9FF4F95B09B467F
:102580008946064600250FE2252877D100242746F4
:10259000F84A0121059400E0044316F8013F203B6E
:1025A00001FA03F01042F7D130782A2811D06FF0E9
:1025B0002F033078A0F13002092A16D8059A44F08A
:1025C000020402EB820203EB42021044761C0590E7
:1025D000EFE759F8042B0592002A03DA504244F43D
:1025E0000054059044F00204761C30782E2816D151
:1025F00016F8010F44F004042A280DD06FF02F02C2
:102600003078A0F13003092B09D807EB870302EBE0
:102610004303C718761CF3E759F8047B761C30781F
:102620006C280FD006DC4C2817D068280DD06A28FB
:1026300014D104E0742810D07A280FD10DE044F4AE
:1026400000140AE044F4801401E044F44014727869
:10265000824202D104F58014761C761C30786628FC
:102660000BD013DC582877D009DC002875D045281A
:10267000F6D04628F4D047281AD19DE118E0632807
:1026800035D0642879D0652812D195E1702873D0AF
:1026900008DC6728F1D069286FD06E280DD06F282C
:1026A00006D1B5E073282CD0752875D0782874D061
:1026B0005A46179990476D1C75E1C4F302500228E1
:1026C00009D003280DD0D9F8001004280DD00D60D2
:1026D00009F1040967E1D9F80010EA17C1E90052CD
:1026E000F6E7D9F800100D80F2E70D70F0E719F861
:1026F000041B8DF8001000208DF80100EA4601202F
:1027000003E059F804AB4FF0FF3061074FF00001D0
:1027100002D40DE008F101018846B9420FDA804584
:10272000F8DB1AF808100029F4D108E008F10101DB
:1027300088468142FADB1AF808100029F6D105987C
:102740005B46A0EB080721463846179A00F094FA3A
:10275000284400EB080507E04DE029E10DE01AF8F8
:10276000010B5A4617999047B8F10108F7D25B461A
:1027700021463846179A13E142E00A220092C4F338
:1027800002524FF0000A022A08D059F804CB032A5B
:102790004FEAEC710AD00DE029E02AE009F10701C7
:1027A00021F00702F2E802C1914609E00FFA8CFC21
:1027B0004FEAEC71042A03D14FFA8CFC4FEAEC711A
:1027C000002907DA0A460021DCF1000C61EB020166
:1027D0002D2202E0220504D52B228DF804200122AF
:1027E00003E0E20701D02022F7E7904659E00A21F2
:1027F00002E010220DE010214FF0000A00910BE0E2
:1028000010224FF0000A44F004040827009203E06D
:1028100008224FF0000A0092C4F30252022A05D0A7
:1028200059F804CB0021032A08D009E009F1070177
:1028300021F00702F2E802C1914605E01FFA8CFC84
:10284000042A01D10CF0FF0C4FF00008220728D514
:10285000702806D0009B83F0100353EA0A0305D0CA
:102860000EE040228DF80420012208E05CEA01021B
:1028700006D030228DF804208DF805000222904603
:10288000009B83F0080353EA0A030AD15CEA0102C1
:1028900001D1620705D530228DF804204FF00108E0
:1028A0007F1E582804D034A003900EA802900DE09B
:1028B00036A0F9E753466046009AFDF76AFD844664
:1028C0000398825C0298401E029002705CEA01004C
:1028D000F0D1029806A9081A00F1200A600702D573
:1028E00024F4803400E00127574502DDA7EB0A00FD
:1028F00000E0002000EB0A01009005984144401AD6
:102900000590E00306D45B462146179A059800F02F
:10291000B3F90544002706E001A85A46C05D17999F
:1029200090476D1C7F1C4745F6DBE0030CD55B46EA
:102930002146179A059800F09FF9054404E03020DD
:102940005A46179990476D1C0099481E009000291F
:10295000F5DC08E0029802995A460078491C029179
:10296000179990476D1CBAF10001AAF1010AF1DC38
:1029700065E1000009280100303132333435363743
:1029800038396162636465660000000030313233BB
:10299000343536373839414243444546000000005B
:1029A00000F058F90544761C307800287FF4ECAD2F
:1029B00019B02846BDE8F08F620700D4062709F158
:1029C000070222F0070CFCE80223E14603F000486E
:1029D0005FEA080C02D00FF2702C0DE05FEA045C95
:1029E00002D50FF2682C07E05FEAC47C02D00FF238
:1029F000602C01E0AFF2700C4FF0FF3823F0004381
:102A0000CDF850C065280CD006DC452809D04628F2
:102A10001DD047283DD13DE0662818D067287ED1DB
:102A200038E00021112F01DB112000E0781CCDE9F6
:102A3000000106A90EA8FFF7DDFCDDE90F010E9AE3
:102A400003910021009207F1010A04914DE04FF03B
:102A500000400097CDE9011006A90EA8FFF7CAFCB7
:102A6000DDE90F0203920E9B11990022DDF80CA004
:102A70000093049211B9791C00EB010AB7EB0A002C
:102A800004D4C0F1FF3007F1010A0490AAEB07005B
:102A9000019044E0012F00DA01270021112F01DD10
:102AA000112000E03846CDE9000106A90EA8FFF785
:102AB000A1FCDDE90F010E9A03910021049100921F
:102AC000BA4621070CD40399514500DA8A46BAF177
:102AD000010F05DD009AAAF10101515C302908D0EF
:102AE000B84202DA10F1040F06DA0121CDE9011033
:102AF00015E0AAF10101E9E7002805DC0499014489
:102B00000491AAEB000102E0411C514500DD8A4618
:102B10000499401A401C01904FF000400290200799
:102B200004D40198504501DBCDF8048000208DF8D5
:102B30004F0002980DF14F07B0F1004F25D02B2028
:102B40000E9002984FF0020800280CDA40420290E2
:102B50002D200E9007E00A210298FDF704FC303189
:102B6000029007F8011DB8F10001A8F10108F2DC9C
:102B700002980028EFD1791E0E980870307800F086
:102B8000200040F0450007F8020D12A8C01B00F11C
:102B900007081498007800B1012000EB0A010198A1
:102BA00001EBE07105984144401A401E0590E00396
:102BB00006D45B462146179A059800F05DF8054457
:102BC0001498007818B15A46179990476D1CE00385
:102BD00024D55B462146179A059800F04DF8054428
:102BE0001CE00498002807DBDDE90301884203DDCF
:102BF0000098405C179901E0179930205A46904799
:102C0000049805F10105401C04900198401E0190B4
:102C100004D12E205A46179990476D1CBAF1000135
:102C2000AAF1010ADDDC05E017F8010B5A461799F5
:102C300090476D1CB8F10001A8F10108F4DC5B4677
:102C40002146179A0598ABE62D0000002B000000E6
:102C5000200000002DE9F041044600251E461746DD
:102C6000880404D405E039462020B0476D1C641E5A
:102C7000F9D52846BDE8F0812DE9F041044600254C
:102C80001E469046C80301D5302700E0202788045F
:102C900004D505E041463846B0476D1C641EF9D5A1
:102CA0002846BDE8F081000013B54FF6FF730122FE
:102CB00069460248FFF7E4F800981CBDD0000020E8
:102CC00008B5FEF737FBFFF767FAFFF75BF9254812
:102CD000416941F0010141614069002200F00100B9
:102CE000009011460B20FEF79DFB0B20FEF78CFB9E
:102CF000FFF720F91D481C490C2201604FF4E13117
:102D0000416000218160C160C0E904128161C1613C
:102D1000FFF74DF800F052F8154A0221102000F09C
:102D200089F8144C124A00212061903A124800F0B0
:102D3000BBF80F4A20606C3A0021104800F0B4F84C
:102D40000B4A6060483A00210D4800F0ADF8084A8F
:102D5000A060243A00210B4800F0A6F8E06000F0E3
:102D600049F8FEE70010024000480040D000002073
:102D70000C460008000000206920000871200008AF
:102D80001D2100084521000810B5EFF3058149B960
:102D9000EFF3108131B908490968022905D1EFF331
:102DA000118111B16FF0050403E0002408B100F0B7
:102DB0001DFE204610BD000074000020EFF30580CA
:102DC00058B9EFF3108040B909490868022801D0CA
:102DD00030B109E0EFF3118030B16FF005007047BA
:102DE00001200860002070474FF0FF30704700005E
:102DF0007400002010B5EFF3058060B9EFF3108088
:102E000048B90B490868022802D0012806D00BE017
:102E1000EFF3118040B16FF0050010BD0220086093
:102E200000F04CFE002010BD4FF0FF3010BD000040
:102E300074000020F8B514464FF00005EFF305824A
:102E40006ABBEFF3108252BB164A1268022A02D103
:102E5000EFF311821ABB10B309B3ACB1D4E902325B
:102E60006BB1502A1BD32269CAB1676900FB01F616
:102E7000B74214D30025009500F016FF07E072B9A1
:102E8000226962B9626952B9002200F0E9FE0500C8
:102E900005D00CB1216800E0002100F071FD28464A
:102EA000F8BD000074000020F0B585B04FEA0103C2
:102EB0004FF00004EFF305810394A1BBEFF3108101
:102EC00089BB21490968022902D1EFF3118151BB65
:102ED00048B3802618218DF8104004AD42B317681E
:102EE00007B13D4697691FB139467F1E382F02D280
:102EF0001779FF0702D0002005B0F0BD576907B170
:102F0000BE08D2F808C0BCF1000F0DD0D4685C2C0C
:102F100018D312693AB137B18DE806103246294606
:102F200001F04BF903900DE0D7685FB912694AB917
:102F300003AACDE90012B2B2294601F011F9012825
:102F400000D003940398D7E7740000202DE9F041E6
:102F5000134C0F46054666692068001D00F016FCFC
:102F6000681C07D137B12168BDE8F0410D48091D43
:102F700000F05CBC20683544B5424560216805D24C
:102F8000A068BDE8F041091D00F038BC6068091D6B
:102F900000F034FC206B854200D22563BDE8F0814F
:102FA000240000208C0600202DE9F041054600F0A9
:102FB00049FC2D4C2069401C206120682B4F10B12A
:102FC000E06930B32BE025602069012827D1002675
:102FD00006EB860007EB800000F002FC761C382E22
:102FE000F6D3234800F0FCFB2148143000F0F8FB36
:102FF0001F48283000F0F4FB1D483C3000F0F0FB87
:103000001B48503000F0ECFB194860601430A060A1
:1030100005E02068E96AC06A884200D82560E06A55
:10302000401CE0626864E86AA169884200D9A06136
:1030300000EB800007EB8000291D00F0F7FB00F09B
:1030400021FCE06900280CD02068E96AC06A884247
:1030500007D208494FF080500860BFF34F8FBFF38D
:103060006F8FBDE8F081000024000020DC0100200B
:103070003C06002004ED00E038B500F0E3FB104C06
:10308000A068C8B90F4800F0ABFB0E48143000F040
:10309000A7FB0C482060143060600A4B00202833E6
:1030A000009003F1500210210A2000F0FDFDA06005
:1030B00010B105A100F064FCBDE8384000F0E2BBAF
:1030C00060000020A0060020546D72510000000036
:1030D00030B4026C0B46002A0BD0C1681144C160A9
:1030E0004468A14201D30168C16030BC1846FDF7B5
:1030F00075B830BC70472DE9F041856B1746044622
:103100000026026C82B1C7B1E068FDF767F8E1689C
:10311000206C091AE1602268914202D26168081AA3
:10312000E060022F16D017E02068A8B9606801F0AF
:10313000E7F80646002060600EE0A068FDF74EF854
:10314000216CA0680844A0606168884204D32068AC
:10315000A06001E005B16D1E6D1CA5633046BDE8A1
:10316000F08110B5044690F8590058B101280CD0F0
:1031700002280FD0502080F31188BFF34F8FBFF388
:103180006F8FFEE7206B00F091FB2046BDE81040FA
:1031900000F08CBB10BD000010484FF440614207A6
:1031A00006D0C01D0D4920F00700411AC1F540614D
:1031B0000B4A00230144C2E900030839103A21F008
:1031C000070111604B600B600B1AC0E9001393609C
:1031D0004FF000405360D06070470000700E002038
:1031E00088000020144E154CA6F29C474FF08058E2
:1031F000DFF84C9012E000BF00F024FBF068C568D7
:10320000281D00F0C3FA2069401E2061E068401EBE
:10321000E06000F037FB2846FFF7A3FFE0680028D6
:10322000EAD138680128F9D9C9F80080BFF34F8F77
:10323000BFF36F8FF2E70000780600202400002023
:1032400004ED00E070B51D46049C51B1C4F80020A7
:10325000C4E90F010121204600F05AFD84F84C50CA
:1032600070BD2460F4E72DE9F0470E46DDE90984DE
:103270001746824691009946089DA522206BFCF7CF
:10328000BFFF6FF00301206B01EB8701084420F0C2
:103290000707780707D0502080F31188BFF34F8FBE
:1032A000BFF36F8FFEE72218315C82F83410315C77
:1032B00011B1401C1028F6D3002684F84360382D45
:1032C00000D33725E562C4E91356201D00F093FAB8
:1032D00004F1180000F08FFA2461C5F1380064622F
:1032E000A061666584F858604A465146384600F049
:1032F0003BFA2060B8F1000F01D0C8F80040BDE8EB
:10330000F087000030B5114900E011460A6882429A
:10331000FBD34B685C18844203D140681844486072
:10332000084643681C18944209D1084C103C246894
:10333000A24209D052681A4442600A6812680260C8
:10334000814200D0086030BD0460F9E788000020A9
:1033500070B5002441600B4D0061914206D8D11A2E
:103360008269914206D2011D686807E09A4203D241
:10337000994201D3012403E0011D286800F03EFAC0
:10338000204670BD6000002010B5044600F05AFAD7
:10339000A06B28B15FF0000400F074FA204610BD65
:1033A0000124F9E730B589B0304D55E00498002884
:1033B00006DADDE90601059A9047049800284BDB00
:1033C000069C606910B1201D00F0E0F902A800F031
:1033D000B9F8024604980A283ED2DFE800F0050555
:1033E000053D263705053D260598A169034601449C
:1033F0002046FFF7ADFF00B3616A20468847E069C9
:10340000012829D1002000900598A16900234218C5
:103410001946204601F07EF878B9502080F31188D3
:10342000BFF34F8FBFF36F8FFEE70598A06128B100
:10343000811813462046FFF78BFF0DE0502080F3E4
:103440001188BFF34F8FBFF36F8FFEE794F82C0006
:1034500010B9204600F02AFA002204A9A86800F05A
:10346000A9FD0028A2D109B030BD000060000020F5
:103470002DE9FC410F46054600F064FB01A800F071
:1034800061F80446019818B100F0B2FFBDE8FC8174
:10349000224EAFB170680068A8B30027291B3A46D6
:1034A000B06800F081FA00F0A3FF0028EED11C49BB
:1034B0004FF080500860BFF34F8FBFF36F8FE5E789
:1034C000A542EBD800F094FF30682746C068C46876
:1034D000201D00F05BF9E069012810D1A0692B469E
:1034E00041193A462046FFF733FF40B1002003461A
:1034F000014600902A46204601F00CF820B1616A8E
:1035000020468847C2E707E0502080F31188BFF3C8
:103510004F8FBFF36F8FFEE70127BFE760000020EA
:1035200004ED00E006484168096829B14168C968AE
:10353000C9684968016370474FF0FF31FAE700003E
:103540002400002070B5054600F070FE064E0446CB
:103550003069844203D200F009F8012000E0002025
:1035600028602046346170BD60000020F8B5194D18
:103570001FE0C068C4680668201D00F007F9616A92
:1035800020468847E069012813D1A0693044B04241
:1035900006D924616060211D286800F02FF908E039
:1035A00000200346014600903246204600F0B2FF5C
:1035B00038B1286801680029DBD16968C5E90010C5
:1035C000F8BD502080F31188BFF34F8FBFF36F8F8A
:1035D000FEE700006000002008484068401C4FF0F3
:1035E000500080F3118804D0BFF34F8FBFF36F8F6B
:1035F000FEE7BFF34F8FBFF36F8FFEE79000002011
:10360000074C2068016841B1C0680021D0F8000073
:10361000FFF72EFFFFF7C6FEF3E701210020F7E7D3
:10362000600000202DE9F041044600F00BF994F908
:10363000455004F1240609E0606A48B1304600F0C4
:103640009FFE08B100F000FA6D1E6DB2002DF3DC94
:103650004FF0FF3684F8456000F014F900F0F2F8FE
:1036600094F9445004F1100709E0206948B1384644
:1036700000F086FE08B100F0E7F96D1E6DB2002D76
:10368000F3DC84F84460BDE8F04100F0FBB80000D2
:103690002DE9F0410546002700F054FA314E30681C
:1036A00008B9FFF779FDF06805424BD1C5B308357D
:1036B00068070ED005F00700C0F108000544680750
:1036C00007D0502080F31188BFF34F8FBFF36F8F67
:1036D000FEE72DB37068854234D822481030014689
:1036E0000C6801E020460C466168A94202D22168BC
:1036F0000029F7D131688C4224D007682168016025
:1037000060680837411B10290FD96019420708D09B
:10371000502080F31188BFF34F8FBFF36F8FFEE708
:1037200010E041606560FFF7EDFD61687068401A68
:103730007060B268904200D2B060F068014300202F
:10374000C4E9000100F054FE780707D0502080F350
:103750001188BFF34F8FBFF36F8FFEE73846BDE888
:10376000F08100007800002010B5031F4FF0807436
:103770001C601B1F21F001011960191F024B0B6017
:10378000143940380A6010BDD9350008D0E901323B
:1037900001699A60D0E901235A604A68824201D1E6
:1037A00082684A60002202610868401E086008685A
:1037B00070470000034B036003F15C000860802049
:1037C00010607047B8070020044B036003F15C00F1
:1037D00008604FF48070106070470000140A0020E9
:1037E00000F108014FF0FF32C0E90112C160016130
:1037F00000210160704700210161704730B50B68FE
:103800005A1C02D000F1080202E0026904E02246DC
:10381000546825689D42FAD953684B6099608A6064
:10382000516008610168491C016030BD42684A600E
:1038300093688B6093685960916008610168491CC6
:1038400001607047502080F31188BFF34F8FBFF3A2
:103850006F8F0A494868401C486001280CD108480D
:10386000006810F0FF0F07D0502080F31188BFF3DD
:103870004F8FBFF36F8FFEE770470000900000206E
:1038800004ED00E00849486828B1401E486001D1B5
:1038900080F311887047502080F31188BFF34F8F59
:1038A000BFF36F8FFEE700009000002070B5002886
:1038B00027D0144DA0F108046168E868014207D1DF
:1038C000502080F31188BFF34F8FBFF36F8FFEE757
:1038D00022683AB1502080F31188BFF34F8FBFF3B5
:1038E0006F8FFEE78143616000F02CF960686968C2
:1038F000084468602046FFF705FDBDE8704000F011
:1039000077BD70BD780000204FF0E02000210161FC
:10391000816105494FF47A720968B1FBF2F1491EE1
:1039200041610721016170472000002010B5FCF7BC
:103930002FFC114910280ED300F1E02090F8F0037D
:103940000A78904207D2502080F31188BFF34F8F3E
:10395000BFF36F8FFEE709480068896800F4E060F4
:10396000884207D9502080F31188BFF34F8FBFF3EF
:103970006F8FFEE710BD0000900000200CED00E00E
:1039800010B5084B002200BF53F832401CB1521C46
:10399000082AF9D310BD43F8321003EBC201486086
:1039A00010BD00009C01002070B515460E4604466F
:1039B000FFF748FF94F944100020491C01D184F816
:1039C000440094F94510491C01D184F84500FFF7E3
:1039D00059FFA06B28B92A46314604F1240000F0B3
:1039E00051F82046BDE87040FFF71CBE10B502003C
:1039F00014D00F48806B38B1502080F31188BFF38A
:103A00004F8FBFF36F8FFEE700F09CF80021104648
:103A1000FFF79CFA00F0ECFC002807D105494FF0B5
:103A200080500860BFF34F8FBFF36F8F10BD000051
:103A30002400002004ED00E002498A6A026049691E
:103A4000416070472400002001490120486270470E
:103A50002400002010B50C4650B1094909681831FE
:103A6000FFF7CCFE2046BDE810400121FFF76EBAFB
:103A7000502080F31188BFF34F8FBFF36F8FFEE7A5
:103A80002400002070B514460D4668B10A49096843
:103A90001831FFF7CBFE0CB14FF0FF352146284619
:103AA000BDE87040FFF752BA502080F31188BFF391
:103AB0004F8FBFF36F8FFEE72400002030B587B033
:103AC0000024039405AA04A903A80494FFF772FE36
:103AD000DDE903010094CDE90110002315A1174889
:103AE000059A00F06AFB164D002868631FD000F0AD
:103AF000E1FC012809D0401C19D1502080F3118825
:103B0000BFF34F8FBFF36F8FFEE7502080F3118814
:103B1000BFF34F8FBFF36F8F4FF0FF30286301204B
:103B2000E8616C6107B0BDE8304000F045B807B00F
:103B300030BD000049444C4500000000E53100085C
:103B4000240000200248816B491C816370470000FB
:103B500024000020164810B5816B11B1012141628B
:103B600010BD002141628169124A01E0B9B1491ECC
:103B700001EB810352F82330002BF7D001EB8103D6
:103B800002EB830202F1080453685B685360A342AE
:103B900001D15B685360DA680260816110BD50201A
:103BA00080F31188BFF34F8FBFF36F8FFEE70000E4
:103BB00024000020DC0100201CB526490878019073
:103BC000FF20087008788DF800009DF800009DF82F
:103BD000002000F0F000904207D0502080F31188C0
:103BE000BFF34F8FBFF36F8FFEE79DF800001A4BB6
:103BF00000F0500018700720986005E09DF8002044
:103C000052008DF80020401E9DF800201206F5D4C9
:103C10009860032807D0502080F31188BFF34F8F9E
:103C2000BFF36F8FFEE74FF4407098600198087003
:103C30000A48016841F470010160016841F0704177
:103C40000160FFF761FE00205860FCF76BFA00206E
:103C50001CBD000000E400E09000002020ED00E02A
:103C6000F8B517460E46050014D0DEB105FB06F088
:103C70005030FFF70DFD04000AD0002084F8460004
:103C800004F150023B46314628460094FFF7DAFA29
:103C90002046F8BD502080F31188BFF34F8FBFF34B
:103CA0006F8FFEE70020E3E738B5049D18B153B1EC
:103CB000CAB181B120E0502080F31188BFF34F8F4B
:103CC000BFF36F8FFEE7502080F31188BFF34F8F53
:103CD000BFF36F8FFEE7502080F31188BFF34F8F43
:103CE000BFF36F8FFEE739B1502080F31188BFF327
:103CF0004F8FBFF36F8FFEE750241C46012384F8DB
:103D000046302B460094FFF79DFA204638BD000050
:103D100070B50D46040025D0FFF794FDD4E90F20BF
:103D2000216802FB001161600021A1632168A1608C
:103D30000A46D4E90F01401E00FB0121E160214643
:103D40004FF0FF3001F8440F487004F110008DB1BE
:103D5000FFF746FD04F12400FFF742FDFFF792FD57
:103D6000012070BD502080F31188BFF34F8FBFF347
:103D70006F8FFEE721690029F0D000F001FB0028D9
:103D8000ECD004494FF080500860BFF34F8FBFF371
:103D90006F8FE3E704ED00E02DE9FF4782B01D4699
:103DA0008A464FF00008040003D0BAF1000F08D093
:103DB00011E0502080F31188BFF34F8FBFF36F8F56
:103DC000FEE7206C38B1502080F31188BFF34F8F8D
:103DD000BFF36F8FFEE7022D0AD1E06B012807D0F9
:103DE000502080F31188BFF34F8FBFF36F8FFEE732
:103DF00000F00EFA3F4F4FF000094FF0805648B9DF
:103E0000049838B1502080F31188BFF34F8FBFF36F
:103E10006F8FFEE7FFF716FDA06BE16B884207D3BB
:103E2000022D05D00498D0B1B8F1000F1AD01EE0D1
:103E30002A4651462046FFF75EF9616A19B104F13E
:103E4000240000F09DFA20B13E60BFF34F8FBFF316
:103E50006F8FFFF717FD012006B0BDE8F087FFF771
:103E600011FD22E06846FFF7E7FD4FF00108FFF77C
:103E700009FDFFF767FEFFF7E5FC94F94400401CDD
:103E800001D184F8449094F94500401C01D184F894
:103E90004590FFF7F7FC04A9684600F027F930B118
:103EA0002046FFF7BFFB00F0A3FA0020D4E7FFF79E
:103EB000C9FCA06BE16B884213D1FFF7E3FC04F16E
:103EC00010000499FFF7C6FD2046FFF7ABFB00F09A
:103ED0008FFA00289ED13E60BFF34F8FBFF36F8FE4
:103EE00098E7FFF7CFFC2046FFF79CFB00F080FA35
:103EF00090E7000004ED00E02DE9F0471F469046F2
:103F00008946040003D0B9F1000F08D011E0502019
:103F100080F31188BFF34F8FBFF36F8FFEE7206CE4
:103F200038B1502080F31188BFF34F8FBFF36F8FEC
:103F3000FEE7022F0AD1E06B012807D0502080F362
:103F40001188BFF34F8FBFF36F8FFEE7FFF7EEFCD3
:103F50005020EFF3118680F31188BFF34F8FBFF32A
:103F60006F8FA06BE16B884206D3022F04D0002034
:103F700086F31188BDE8F08794F945503A464946E2
:103F80002046FFF7B8F8681C04D06D1C84F8455033
:103F90000120EDE7606A0028FAD004F1240000F067
:103FA000EFF90028F4D0B8F1000FF1D00121C8F8E2
:103FB0000010EDE72DE9F747002683B08A4604009C
:103FC00003D0BAF1000F08D011E0502080F311881F
:103FD000BFF34F8FBFF36F8FFEE7206C38B15020D7
:103FE00080F31188BFF34F8FBFF36F8FFEE700F0B0
:103FF0000FF9DFF8F4804FF000094FF0805748B90F
:10400000059838B1502080F31188BFF34F8FBFF36C
:104010006F8FFEE7FFF716FCA56BC5B15146204632
:10402000FFF756F86D1EA563206950B104F110002A
:1040300000F0A6F928B1C8F80070BFF34F8FBFF3A6
:104040006F8FFFF71FFC012006B0BDE8F0870598D1
:1040500008B11EB106E0FFF715FC27E06846FFF740
:10406000EBFC0126FFF70EFCFFF76CFDFFF7EAFB08
:1040700094F94400401C01D184F8449094F945001F
:10408000401C01D184F84590FFF7FCFB05A9684668
:1040900000F02CF8002820460AD0FFF7C3FA00F001
:1040A000A7F92046FFF770F90028B3D00020CBE72E
:1040B000FFF76AF990B104F124000599FFF7CAFCF3
:1040C0002046FFF7AFFA00F093F90028A2D1C8F814
:1040D0000070BFF34F8FBFF36F8F9BE72046FFF752
:1040E000A1FA00F085F995E704ED00E02DE9F04133
:1040F0000C46050011D0C4B1FFF7A4FB174B5A6959
:104100006E682068911B471C17D02F689B6A9F42DE
:1041100019D0964217D8012410E0502080F311885E
:10412000BFF34F8FBFF36F8FFEE7502080F31188EE
:10413000BFF34F8FBFF36F8FFEE70024FFF7A2FBA3
:104140002046BDE8F081884205D9401A2060284603
:10415000FFF772FCF1E700202060DCE7240000207C
:104160002DE9FF5F8346DDE90E87994616468A46AC
:104170009000FFF78DFA05001CD05C20FFF788FA4D
:10418000040014D00020256384F85900CDE90240D2
:10419000CDE900874B46324651465846FFF763F853
:1041A0002046FEF701FF012004B0BDE8F09F28463D
:1041B000FFF77CFB4FF0FF30F6E7F0B585B0DDE9A7
:1041C0000B640A9DA6B1DCB15C270097266302262A
:1041D00084F85960002604AFCDE90246CDE90057C6
:1041E000FFF741F82046FEF7DFFE049805B0F0BD6A
:1041F000502080F31188BFF34F8FBFF36F8FFEE71E
:10420000502080F31188BFF34F8FBFF36F8FFEE70D
:104210000548C16919B1806B18B1002070470120B1
:1042200070470220704700002400002001484069C8
:1042300070470000240000202DE9F0412E4C00279B
:10424000A06B40B1206A401C2062606A00B1012767
:104250003846BDE8F0816669761C666113D16068F6
:10426000006838B1502080F31188BFF34F8FBFF33F
:104270006F8FFEE76068A1686160A060A06A401C63
:10428000A062FFF74FF9206BDFF87080864209D3F8
:104290006068006880B16068C068C5686868864208
:1042A0000DD220632068C06A00EB800158F821001D
:1042B0000128CAD90127C8E74FF0FF30F1E7281DD0
:1042C000FFF764FAA86A18B105F11800FFF75EFA63
:1042D000E86AA169884200D9A06100EB800108EB7F
:1042E0008100291DFFF7A2FAE86A2168C96A88429D
:1042F000CED30127CCE7000024000020DC01002001
:1043000070B504004FF0000133D01B4D2868844283
:1043100007D0502080F31188BFF34F8FBFF36F8F0A
:10432000FEE7206D38B1401E2065E36CE26A9A42D8
:104330001FD040B11DE0502080F31188BFF34F8F94
:10434000BFF36F8FFEE7201DFFF720FAE06CE062FD
:10435000C0F13800A061E06AA969884200D9A8616B
:10436000064900EB800001EB8000211DFFF75EFA9B
:104370000121084670BD000024000020DC0100205F
:1043800070B5C068C46854B104F118000646FFF760
:10439000FDF9144DA86B50B13146134815E050207B
:1043A00080F31188BFF34F8FBFF36F8FFEE7201D9F
:1043B000FFF7ECF9E06AA969884200D9A8610B49C6
:1043C00000EB800001EB8000211DFFF72FFAE06A6F
:1043D0002968C96A884202D90120686270BD00203C
:1043E00070BD00002400002064060020DC010020D5
:1043F0002DE9F0472C4D00242746A86B38B1FFF774
:1044000021FAA86B401EA863A86B40B146E050207B
:1044100080F31188BFF34F8FBFF36F8FFEE72969D9
:10442000224E0120D1B3A6F5916980463068E0B1F3
:10443000F068C46804F11800FFF7A8F9201DFFF721
:10444000A5F9E06AA969884200D9A86100EB80015A
:1044500009EB8100211DFFF7E9F9E06A2968C96AC3
:104460008842E3D3C5F82480E0E70CB1FFF75AF89F
:104470002C6A4CB14FEA0806FFF7DEFE00B16E620F
:10448000641EF9D100202862686A38B10849012702
:1044900038070860BFF34F8FBFF36F8FFFF7F2F954
:1044A0003846BDE8F08700002400002064060020A4
:1044B00004ED00E010B586B0FEF7DEFD114CA068FB
:1044C000B8B100200390049005AA04A903A8FFF73F
:1044D0007BF9DDE9032102208DE8070000230AA112
:1044E0000B48059AFFF769FEE06010B106B00120A5
:1044F00010BD502080F31188BFF34F8FBFF36F8F33
:10450000FEE7000060000020546D722053766300C7
:10451000013600082DE9FF411E46134602000A9DA0
:104520004FF0000016D0144CA768002F0FD0CDE933
:1045300000130292062917DAFFF76AFE02284FF0ED
:1045400000030FD000226946A068FFF725FC04B0E5
:10455000BDE8F081502080F31188BFF34F8FBFF387
:104560006F8FFEE72A46EEE700233246694638465B
:10457000FFF7C2FCEBE70000600000206C4600087B
:10458000000000000000000000000000000000002B
:104590000002000018000000000000000000000001
:1045A0004846000800000000000000000000000075
:1045B00000000000000200003100000000000000C8
:1045C0000000000054460008000000000000000049
:1045D0000000000000000000000200000A000000CF
:1045E000000000000000000060460008000000001D
:1045F00000000000000000000000000000020000B9
:104600000800000000000000000000003C46000818
:10461000000000000000000000000000000000009A
:104620000000000000000000000000000102030480
:104630000607080900000000010203046D795175A6
:1046400065756530310000006D795461736B3032EF
:10465000000000006D795461736B3033000000007E
:104660006D795461736B30340000000064656661DD
:10467000756C745461736B0098460008000000204C
:10468000A0000000D423000838470008A000002044
:10469000D01D0000E423000800000000000000001E
:1046A0000000000000000000000000000100000009
:1046B00010000000000000000024F40000000000D2
:1046C00000000000000000000000000000000000EA
:1046D00000000000000000000000000000000000DA
:1046E00000000000000000000000000000000000CA
:1046F00000000000000000000000000000000000BA
:1047000000000000000000000000000000000000A9
:104710000000000000000000000000000000000099
:10472000000000000000000000000000AAAAAAAAE1
:08473000000000000000000081
:04000005080000ED02
:00000001FF
